:100000000C945E000C9486000C9486000C94860080
:100010000C9486000C9486000C9486000C94860048
:100020000C9486000C9486000C9486000C94860038
:100030000C9486000C9486000C9486000C94860028
:100040000C946C020C9486000C94DC020C94B602A6
:100050000C9486000C9486000C9486000C94860008
:100060000C9486000C948600000000080002010039
:100070000003040700000000000000000000000072
:10008000250028002B0000000000240027002A0083
:10009000040404040404040402020202020203032E
:1000A0000303030301020408102040800102040836
:1000B00010200102040810200E03DB0411241FBECF
:1000C000CFEFD8E0DEBFCDBF22E0AAE6B1E001C0AD
:1000D0001D92AA31B207E1F711E0A0E0B1E0E2E53C
:1000E000FEE002C005900D92AA36B107D9F710E0E4
:1000F000CDE5D0E004C02197FE010E941B05CC3560
:10010000D107C9F70E9482030C941C070C940000CD
:1001100090E0FC01EC55FF4F249180579F4FFC016C
:100120008491882399F090E0880F991FFC01EA5789
:10013000FF4FA591B491FC01E458FF4F8591949134
:100140008FB7F894EC91E22BEC938FBF089590E079
:10015000FC01E859FF4F2491FC01EC55FF4F34910D
:10016000FC01E057FF4FE491EE23C9F0222339F060
:10017000233001F1A8F4213019F1223029F1F0E007
:10018000EE0FFF1FE458FF4FA591B4918FB7F8947D
:10019000EC91611126C030953E233C938FBF0895AA
:1001A0002730A9F02830C9F0243049F78091800029
:1001B0008F7D03C0809180008F7780938000DFCF98
:1001C00084B58F7784BDDBCF84B58F7DFBCF8091E5
:1001D000B0008F778093B000D2CF8091B0008F7D38
:1001E000F9CF3E2BDACF3FB7F89480916F01909111
:1001F0007001A0917101B091720126B5A89B05C054
:100200002F3F19F00196A11DB11D3FBFBA2FA92F95
:10021000982F8827BC01CD01620F711D811D911D92
:1002200042E0660F771F881F991F4A95D1F70895FE
:10023000AF92BF92CF92DF92EF92FF920F931F93F4
:10024000CF93DF936C017B018B01040F151FEB0132
:100250005E01AE18BF08C017D10759F06991D601E9
:10026000ED91FC910190F081E02DC6010995892B5B
:1002700079F7C501DF91CF911F910F91FF90EF901A
:10028000DF90CF90BF90AF900895FC01538D448DC7
:10029000252F30E0842F90E0821B930B541710F031
:1002A000CF96089501970895FC01918D828D98173E
:1002B00061F0A28DAE0FBF2FB11D5D968C91928D16
:1002C0009F5F9F73928F90E008958FEF9FEF089547
:1002D000FC01918D828D981731F0828DE80FF11D10
:1002E000858D90E008958FEF9FEF0895FC01918D2B
:1002F000228D892F90E0805C9F4F821B91098F7324
:100300009927089583E791E00E94760121E0892BE7
:1003100009F420E0822F089580E090E0892B29F0F5
:100320000E94820181110C9400000895FC01A48DAB
:10033000A80FB92FB11DA35ABF4F2C91848D90E007
:1003400001968F739927848FA689B7892C93A089EA
:10035000B1898C91837080648C93938D848D981374
:1003600006C00288F389E02D80818F7D8083089507
:10037000EF92FF920F931F93CF93DF93EC0181E0F5
:10038000888F9B8D8C8D98131AC0E889F98980819C
:1003900085FF15C09FB7F894EE89FF896083E889CF
:1003A000F98980818370806480839FBF81E090E0C1
:1003B000DF91CF911F910F91FF90EF900895F62E4E
:1003C0000B8D10E00F5F1F4F0F731127E02E8C8DE8
:1003D0008E110CC00FB607FCFACFE889F98980812D
:1003E00085FFF5CFCE010E949601F1CFEB8DEC0F8A
:1003F000FD2FF11DE35AFF4FF0829FB7F8940B8F4A
:10040000EA89FB8980818062CFCFCF93DF93EC01B3
:10041000888D8823B9F0AA89BB89E889F9898C91EC
:1004200085FD03C0808186FD0DC00FB607FCF7CFA8
:100430008C9185FFF2CF808185FFEDCFCE010E94A8
:100440009601E9CFDF91CF91089520911402309168
:100450001502232B39F421E0FC018081882361F00F
:1004600020E00AC0BC0180911002909111020E940C
:100470000C0721E0892BA1F7822F0895CF93DF93FA
:10048000EC018091100290911102009759F0209197
:100490001202309113022C173D0720F081E0DF910A
:1004A000CF910895BE016F5F7F4F0E94460600976F
:1004B00089F09093110280931002D0931302C0939D
:1004C00012022091140230911502232B39F7FC01FE
:1004D0001082E4CF80E0E3CF1F920F920FB60F920D
:1004E00011242F933F938F939F93AF93BF9380914A
:1004F0006B0190916C01A0916D01B0916E013091F2
:100500006A0123E0230F2D3758F50196A11DB11D77
:1005100020936A0180936B0190936C01A0936D010D
:10052000B0936E0180916F0190917001A091710163
:10053000B09172010196A11DB11D80936F0190933E
:100540007001A0937101B0937201BF91AF919F911F
:100550008F913F912F910F900FBE0F901F90189584
:1005600026E8230F0296A11DB11DD2CF1F920F9234
:100570000FB60F9211242F933F934F935F936F9376
:100580007F938F939F93AF93BF93EF93FF9383E7F3
:1005900091E00E949601FF91EF91BF91AF919F91E1
:1005A0008F917F916F915F914F913F912F910F901C
:1005B0000FBE0F901F9018951F920F920FB60F92BB
:1005C00011242F938F939F93EF93FF93E0918301D7
:1005D000F09184018081E0918901F0918A0182FD8E
:1005E0001BC0908180918C018F5F8F7320918D0152
:1005F000821741F0E0918C01F0E0ED58FE4F958FAD
:1006000080938C01FF91EF919F918F912F910F908B
:100610000FBE0F901F9018958081F4CF1092760135
:100620001092750188EE93E0A0E0B0E0809377012E
:1006300090937801A0937901B0937A018AE091E0D8
:10064000909374018093730185EC90E09093800106
:1006500080937F0184EC90E09093820180938101EC
:1006600080EC90E0909384018093830181EC90E092
:10067000909386018093850182EC90E090938801AD
:100680008093870186EC90E090938A0180938901A2
:1006900010928C0110928D0110928E0110928F0198
:1006A0001092110210921002109213021092120274
:1006B000109215021092140290E080E00E943E0217
:1006C0002091100230911102811113C021153105C2
:1006D00019F0C9010E94BD0510921102109210027A
:1006E000109215021092140210921302109212022C
:1006F000089510921502109214026AE171E0C90186
:100700000C941507CF93DF9300D0CDB7DEB7789464
:1007100084B5826084BD84B5816084BD85B5826006
:1007200085BD85B5816085BD80916E0081608093B7
:100730006E00109281008091810082608093810020
:100740008091810081608093810080918000816030
:10075000809380008091B10084608093B10080918B
:10076000B00081608093B00080917A0084608093B3
:100770007A0080917A00826080937A0080917A007A
:10078000816080937A0080917A00806880937A00FB
:100790001092C100E0918301F091840182E0808396
:1007A000E0917F01F09180011082E0918101F09150
:1007B00082018FEC808310928B01E0918701F09190
:1007C000880186E08083E0918501F0918601808137
:1007D00080618083E0918501F0918601808188604D
:1007E0008083E0918501F09186018081806880831B
:1007F000E0918501F091860180818F7D80838DE07D
:100800000E94880089E00E94880090E0E92E90E034
:10081000F92E83E791E00E947601892B09F449C003
:100820000E94F3002B013C0183E0882E912CA12C27
:10083000B12C0E94F3006419750986099709683E76
:10084000734081059105A8F321E0821A9108A1085F
:10085000B10888EE480E83E0581E611C711C81149B
:100860009104A104B10429F783E791E00E945401A7
:1008700089831A8200911402109115020F5F1F4F95
:10088000C8010E943E02882321F22091100230917B
:1008900011028091140290911502BE016F5F7F4F8B
:1008A000820F931F0E9415071093150200931402E4
:1008B000B0CF409114025091150241155105E9F154
:1008C000609110027091110283E791E00E9418017B
:1008D00042E050E068E171E083E791E00E94180196
:1008E0008BE191E00E94250261E0811107C089E25D
:1008F00091E00E942502882361F160E08DE00E9472
:10090000A70090E080E00E943E022091100230910A
:100910001102811146C02115310519F0C9010E944B
:10092000BD05109211021092100210921502109241
:1009300014021092130210921202E114F10409F44D
:1009400068CF0E948201882309F463CF0E940000CF
:1009500060CF88E391E00E942502882319F061E0CE
:1009600089E0CDCF84E491E00E942502882311F034
:1009700060E0F6CF81E591E00E942502882329F00E
:1009800061E08DE00E94A700EACF8DE591E00E9432
:100990002502882309F4B5CF60E08DE00E94A7000E
:1009A000E7CF10921502109214026AE171E0C901BA
:1009B0000E941507C2CF80911002909111020097FA
:1009C00011F00C94BD0508952F923F924F925F92C3
:1009D0006F927F928F929F92AF92BF92CF92DF924F
:1009E000EF92FF920F931F93CF93DF93CDB7DEB7B4
:1009F000CA1BDB0B0FB6F894DEBF0FBECDBF099448
:100A00002A88398848885F846E847D848C849B849E
:100A1000AA84B984C884DF80EE80FD800C811B81AC
:100A2000AA81B981CE0FD11D0FB6F894DEBF0FBEDB
:100A3000CDBFED010895EE0FFF1F0590F491E02D5D
:100A400009940F931F93CF93DF938230910510F495
:100A500082E090E0E0911802F091190230E020E08D
:100A6000B0E0A0E0309799F42115310509F44AC0AF
:100A7000281B390B24303105D8F58A819B816115FB
:100A8000710589F1FB0193838283FE0111C04081CE
:100A900051810281138148175907E0F0481759071F
:100AA00099F4109761F012960C93129713961C9379
:100AB0003296CF01DF91CF911F910F91089500934E
:100AC000180210931902F4CF2115310551F0421785
:100AD000530738F0A901DB019A01BD01DF01F801DC
:100AE000C1CFEF01F9CF9093190280931802CDCFB7
:100AF000FE01E20FF31F8193919322503109398354
:100B00002883D7CF2091160230911702232B41F46E
:100B100020910201309103013093170220931602B5
:100B200020910001309101012115310541F42DB7CB
:100B30003EB74091040150910501241B350BE09113
:100B40001602F0911702E217F307A0F42E1B3F0BD9
:100B50002817390778F0AC014E5F5F4F241735072F
:100B600048F04E0F5F1F5093170240931602819377
:100B700091939FCFF0E0E0E09CCFCF93DF9300977D
:100B8000E9F0FC01329713821282A0911802B09111
:100B90001902ED0130E020E01097A1F420813181AD
:100BA000820F931F209116023091170228173907E0
:100BB00009F061C0F0931702E0931602DF91CF9124
:100BC0000895EA01CE17DF07E8F54A815B819E01AF
:100BD00041155105B1F7E901FB83EA834991599128
:100BE000C40FD51FEC17FD0761F480819181029637
:100BF000840F951FE90199838883828193819B8368
:100C00008A83F0E0E0E012968D919C911397009713
:100C1000B9F52D913C911197CD010296820F931F4A
:100C200020911602309117022817390739F63097AC
:100C300051F51092190210921802B0931702A09366
:100C40001602BCCFD383C28340815181840F951F8C
:100C5000C817D90761F44E5F5F4F88819981480FAB
:100C6000591F518340838A819B81938382832115FD
:100C7000310509F0B0CFF0931902E09318029ECF2E
:100C8000FD01DC01C0CF13821282D7CFB0E0A0E01B
:100C9000ECE4F6E00C94E6048C01009751F4CB01EF
:100CA0000E9421058C01C801CDB7DEB7E0E10C94AC
:100CB0000205FC01E60FF71F9C0122503109E217E3
:100CC000F30708F49DC0D901CD91DC911197C617A7
:100CD000D70798F0C530D10530F3CE0104978617B9
:100CE000970708F3C61BD70B2297C193D1936D9337
:100CF0007C93CF010E94BD05D6CF5B01AC1ABD0A23
:100D00004C018C0E9D1EA0911802B0911902512C1D
:100D1000412CF12CE12C109731F580911602909125
:100D200017028815990509F05CC04616570608F0A9
:100D300058C08091000190910101009741F48DB756
:100D40009EB74091040150910501841B950BE81753
:100D5000F90708F055C0F0931702E0931602F90165
:100D600071836083A0CF8D919C91119712966C90A6
:100D7000129713967C901397A815B90559F56C0135
:100D800042E0C40ED11CCA14DB0420F1AC014A19A4
:100D90005B09DA011296159780F0628273825183A3
:100DA0004083D9016D937C93E114F10471F0D70174
:100DB0001396FC93EE93129776CF22968C0F9D1F7D
:100DC000F90191838083F301EFCFF0931902E0934F
:100DD000180269CF4816590608F42C017D01D30189
:100DE0009ACFCB010E9421057C01009749F0AE010A
:100DF000B8010E940307C8010E94BD05870153CFB7
:100E000010E000E050CFFB01DC0102C001900D9228
:100E100041505040D8F70895FB01DC018D910190BD
:100E200080190110D9F3990B0895FB01DC010190A1
:100E30000D920020E1F7089510E0CDE5D0E004C068
:100E4000FE010E941B052196CE35D107C9F7F89403
:020E5000FFCFD2
:100E520000001A02800000000000B80118014501DC
:100E620005027601540168010D0A007475726E2044
:100E72006F6E206C69676874007475726E206F669D
:100E820066206C69676874007475726E206F6E20DC
:100E920066616E007475726E206F66662066616EA2
:100EA200007475726E206F6E20616C6C00747572C6
:0A0EB2006E206F666620616C6C0014
:00000001FF
